{"abi":[{"type":"function","name":"addTask","inputs":[{"name":"_name","type":"string","internalType":"string"},{"name":"_status","type":"uint8","internalType":"enum TaskManager.Status"}],"outputs":[{"name":"taskId","type":"uint256","internalType":"uint256"}],"stateMutability":"nonpayable"},{"type":"function","name":"getMyTasks","inputs":[],"outputs":[{"name":"","type":"uint256[]","internalType":"uint256[]"}],"stateMutability":"view"},{"type":"function","name":"getTask","inputs":[{"name":"_taskId","type":"uint256","internalType":"uint256"}],"outputs":[{"name":"name","type":"string","internalType":"string"},{"name":"status","type":"uint8","internalType":"enum TaskManager.Status"},{"name":"owner","type":"address","internalType":"address"}],"stateMutability":"view"},{"type":"function","name":"getTasksLength","inputs":[],"outputs":[{"name":"","type":"uint256","internalType":"uint256"}],"stateMutability":"view"},{"type":"function","name":"tasks","inputs":[{"name":"","type":"uint256","internalType":"uint256"}],"outputs":[{"name":"name","type":"string","internalType":"string"},{"name":"status","type":"uint8","internalType":"enum TaskManager.Status"},{"name":"owner","type":"address","internalType":"address"}],"stateMutability":"view"},{"type":"function","name":"tasksByOwner","inputs":[{"name":"","type":"address","internalType":"address"},{"name":"","type":"uint256","internalType":"uint256"}],"outputs":[{"name":"","type":"uint256","internalType":"uint256"}],"stateMutability":"view"},{"type":"function","name":"updateStatus","inputs":[{"name":"_taskId","type":"uint256","internalType":"uint256"},{"name":"_status","type":"uint8","internalType":"enum TaskManager.Status"}],"outputs":[],"stateMutability":"nonpayable"},{"type":"event","name":"TaskAdded","inputs":[{"name":"id","type":"uint256","indexed":false,"internalType":"uint256"},{"name":"name","type":"string","indexed":false,"internalType":"string"},{"name":"status","type":"uint8","indexed":false,"internalType":"enum TaskManager.Status"},{"name":"owner","type":"address","indexed":false,"internalType":"address"}],"anonymous":false},{"type":"error","name":"Unauthorised","inputs":[]}],"bytecode":{"object":"0x608060405234801561001057600080fd5b506109fc806100206000396000f3fe608060405234801561001057600080fd5b506004361061007d5760003560e01c80638d9776721161005b5780638d977672146100d7578063c1419a04146100ea578063d299370b146100fc578063dbb9ae771461010f57600080fd5b80631d65e77e146100825780633a1b3d31146100ad5780636e13f818146100c2575b600080fd5b6100956100903660046105d3565b610122565b6040516100a493929190610624565b60405180910390f35b6100c06100bb3660046106a6565b610243565b005b6100ca6102f1565b6040516100a491906106d2565b6100956100e53660046105d3565b610352565b6000545b6040519081526020016100a4565b6100ee61010a366004610716565b610422565b6100ee61011d36600461074e565b610453565b60606000806000848154811061013a5761013a6107cf565b90600052602060002090600202016000018054610156906107e5565b80601f0160208091040260200160405190810160405280929190818152602001828054610182906107e5565b80156101cf5780601f106101a4576101008083540402835291602001916101cf565b820191906000526020600020905b8154815290600101906020018083116101b257829003601f168201915b50505050509250600084815481106101e9576101e96107cf565b60009182526020822060016002909202010154815460ff909116935085908110610215576102156107cf565b906000526020600020906002020160010160019054906101000a90046001600160a01b031690509193909250565b81336001600160a01b031660008281548110610261576102616107cf565b600091825260209091206002909102016001015461010090046001600160a01b0316146102a157604051636bd1573560e11b815260040160405180910390fd5b81600084815481106102b5576102b56107cf565b906000526020600020906002020160010160006101000a81548160ff021916908360038111156102e7576102e76105ec565b0217905550505050565b3360009081526001602090815260409182902080548351818402810184019094528084526060939283018282801561034857602002820191906000526020600020905b815481526020019060010190808311610334575b5050505050905090565b6000818154811061036257600080fd5b9060005260206000209060020201600091509050806000018054610385906107e5565b80601f01602080910402602001604051908101604052809291908181526020018280546103b1906107e5565b80156103fe5780601f106103d3576101008083540402835291602001916103fe565b820191906000526020600020905b8154815290600101906020018083116103e157829003601f168201915b5050506001909301549192505060ff8116906001600160a01b036101009091041683565b6001602052816000526040600020818154811061043e57600080fd5b90600052602060002001600091509150505481565b600080604051806060016040528086868080601f0160208091040260200160405190810160405280939291908181526020018383808284376000920191909152505050908252506020018460038111156104af576104af6105ec565b815233602090910152600080546001810182559080528151919250829160029091027f290decd9548b62a8d60345a988386fc84ba6bc95484008f6362f93160ef3e563019081906105009082610886565b50602082015160018083018054909160ff1990911690836003811115610528576105286105ec565b021790555060409190910151600191820180546001600160a01b0390921661010002610100600160a81b031990921691909117905560005461056a9190610946565b336000818152600160208181526040808420805493840181558452922001839055519193507f73661ab7e9f158556173eba8053c6e514e80e2fbb867cf734f03a4831568669d916105c39185918991899189919061096d565b60405180910390a1509392505050565b6000602082840312156105e557600080fd5b5035919050565b634e487b7160e01b600052602160045260246000fd5b6004811061062057634e487b7160e01b600052602160045260246000fd5b9052565b606081526000845180606084015260005b818110156106525760208188018101516080868401015201610635565b506000608082850101526080601f19601f8301168401019150506106796020830185610602565b6001600160a01b03929092166040919091015292915050565b8035600481106106a157600080fd5b919050565b600080604083850312156106b957600080fd5b823591506106c960208401610692565b90509250929050565b6020808252825182820181905260009190848201906040850190845b8181101561070a578351835292840192918401916001016106ee565b50909695505050505050565b6000806040838503121561072957600080fd5b82356001600160a01b038116811461074057600080fd5b946020939093013593505050565b60008060006040848603121561076357600080fd5b833567ffffffffffffffff8082111561077b57600080fd5b818601915086601f83011261078f57600080fd5b81358181111561079e57600080fd5b8760208285010111156107b057600080fd5b6020928301955093506107c69186019050610692565b90509250925092565b634e487b7160e01b600052603260045260246000fd5b600181811c908216806107f957607f821691505b60208210810361081957634e487b7160e01b600052602260045260246000fd5b50919050565b634e487b7160e01b600052604160045260246000fd5b601f821115610881576000816000526020600020601f850160051c8101602086101561085e5750805b601f850160051c820191505b8181101561087d5782815560010161086a565b5050505b505050565b815167ffffffffffffffff8111156108a0576108a061081f565b6108b4816108ae84546107e5565b84610835565b602080601f8311600181146108e957600084156108d15750858301515b600019600386901b1c1916600185901b17855561087d565b600085815260208120601f198616915b82811015610918578886015182559484019460019091019084016108f9565b50858210156109365787850151600019600388901b60f8161c191681555b5050505050600190811b01905550565b8181038181111561096757634e487b7160e01b600052601160045260246000fd5b92915050565b85815260806020820152836080820152838560a0830137600060a08583010152600060a0601f19601f87011683010190506109ab6040830185610602565b6001600160a01b03929092166060919091015294935050505056fea26469706673582212205b3154ea601aa8ce51d177bd6ebe1378c3050be0a3d14698ce028379250cb1b964736f6c63430008180033","linkReferences":{}},"methodIdentifiers":{"addTask(string,uint8)":"dbb9ae77","getMyTasks()":"6e13f818","getTask(uint256)":"1d65e77e","getTasksLength()":"c1419a04","tasks(uint256)":"8d977672","tasksByOwner(address,uint256)":"d299370b","updateStatus(uint256,uint8)":"3a1b3d31"},"id":25}