{"abi":[{"type":"function","name":"addVault","inputs":[{"name":"_name","type":"string","internalType":"string"}],"outputs":[{"name":"vaultId","type":"uint256","internalType":"uint256"}],"stateMutability":"nonpayable"},{"type":"function","name":"deposit","inputs":[{"name":"_vaultId","type":"uint256","internalType":"uint256"}],"outputs":[],"stateMutability":"payable"},{"type":"function","name":"getMyVaults","inputs":[],"outputs":[{"name":"","type":"uint256[]","internalType":"uint256[]"}],"stateMutability":"view"},{"type":"function","name":"getVault","inputs":[{"name":"_vaultId","type":"uint256","internalType":"uint256"}],"outputs":[{"name":"owner","type":"address","internalType":"address"},{"name":"balance","type":"uint256","internalType":"uint256"}],"stateMutability":"view"},{"type":"function","name":"getVaultsLength","inputs":[],"outputs":[{"name":"","type":"uint256","internalType":"uint256"}],"stateMutability":"view"},{"type":"function","name":"vaults","inputs":[{"name":"","type":"uint256","internalType":"uint256"}],"outputs":[{"name":"name","type":"string","internalType":"string"},{"name":"owner","type":"address","internalType":"address"},{"name":"balance","type":"uint256","internalType":"uint256"}],"stateMutability":"view"},{"type":"function","name":"vaultsByOwner","inputs":[{"name":"","type":"address","internalType":"address"},{"name":"","type":"uint256","internalType":"uint256"}],"outputs":[{"name":"","type":"uint256","internalType":"uint256"}],"stateMutability":"view"},{"type":"function","name":"withdraw","inputs":[{"name":"_vaultId","type":"uint256","internalType":"uint256"},{"name":"amount","type":"uint256","internalType":"uint256"}],"outputs":[],"stateMutability":"nonpayable"},{"type":"event","name":"VaultAdded","inputs":[{"name":"id","type":"uint256","indexed":false,"internalType":"uint256"},{"name":"owner","type":"address","indexed":false,"internalType":"address"}],"anonymous":false},{"type":"event","name":"VaultDeposit","inputs":[{"name":"id","type":"uint256","indexed":false,"internalType":"uint256"},{"name":"owner","type":"address","indexed":false,"internalType":"address"},{"name":"amount","type":"uint256","indexed":false,"internalType":"uint256"}],"anonymous":false},{"type":"event","name":"VaultWithdraw","inputs":[{"name":"id","type":"uint256","indexed":false,"internalType":"uint256"},{"name":"owner","type":"address","indexed":false,"internalType":"address"},{"name":"amount","type":"uint256","indexed":false,"internalType":"uint256"}],"anonymous":false},{"type":"error","name":"Unauthorised","inputs":[]}],"bytecode":{"object":"0x608060405234801561001057600080fd5b50610afb806100206000396000f3fe60806040526004361061007b5760003560e01c80639403b6341161004e5780639403b63414610119578063b6b55f2514610158578063f85829341461016b578063fb3ddf571461018b57600080fd5b80631a0121db14610080578063441a3e70146100b357806344b19dfc146100d55780638c64ea4a146100ea575b600080fd5b34801561008c57600080fd5b506100a061009b36600461077d565b6101ad565b6040519081526020015b60405180910390f35b3480156100bf57600080fd5b506100d36100ce3660046107b5565b6101de565b005b3480156100e157600080fd5b506000546100a0565b3480156100f657600080fd5b5061010a6101053660046107d7565b6103a8565b6040516100aa939291906107f0565b34801561012557600080fd5b506101396101343660046107d7565b610474565b604080516001600160a01b0390931683526020830191909152016100aa565b6100d36101663660046107d7565b6104d6565b34801561017757600080fd5b506100a0610186366004610856565b6105cf565b34801561019757600080fd5b506101a061071c565b6040516100aa91906108c8565b600160205281600052604060002081815481106101c957600080fd5b90600052602060002001600091509150505481565b81336001600160a01b0316600082815481106101fc576101fc61090c565b60009182526020909120600160039092020101546001600160a01b03161461023757604051636bd1573560e11b815260040160405180910390fd5b816000848154811061024b5761024b61090c565b90600052602060002090600302016002015410156102af5760405162461bcd60e51b815260206004820181905260248201527f4e6f7420656e6f7567682066756e647320696e20746865207661756c74203a28604482015260640160405180910390fd5b81600084815481106102c3576102c361090c565b9060005260206000209060030201600201546102df9190610938565b600084815481106102f2576102f261090c565b9060005260206000209060030201600201819055506000838154811061031a5761031a61090c565b600091825260208220600160039092020101546040516001600160a01b039091169184156108fc02918591818181858888f19350505050158015610362573d6000803e3d6000fd5b50604080518481523360208201529081018390527f7b20da23e738efa0ae5f5a3fe32196712de0355b383e508615ba311f4e5a346f9060600160405180910390a1505050565b600081815481106103b857600080fd5b90600052602060002090600302016000915090508060000180546103db90610951565b80601f016020809104026020016040519081016040528092919081815260200182805461040790610951565b80156104545780601f1061042957610100808354040283529160200191610454565b820191906000526020600020905b81548152906001019060200180831161043757829003601f168201915b50505050600183015460029093015491926001600160a01b031691905083565b6000806000838154811061048a5761048a61090c565b9060005260206000209060030201600201549050600083815481106104b1576104b161090c565b60009182526020909120600160039092020101546001600160a01b0316939092509050565b80336001600160a01b0316600082815481106104f4576104f461090c565b60009182526020909120600160039092020101546001600160a01b03161461052f57604051636bd1573560e11b815260040160405180910390fd5b34600083815481106105435761054361090c565b90600052602060002090600302016002015461055f919061098b565b600083815481106105725761057261090c565b60009182526020918290206002600390920201019190915560408051848152339281019290925234908201527fd9c5c6c4e1700169f54d83c8b698252ca33652331acb3dd7540530aca8e1f6ee9060600160405180910390a15050565b600080604051806060016040528085858080601f0160208091040260200160405190810160405280939291908181526020018383808284376000920182905250938552505033602084015250604090910181905280546001810182559080528151919250829160039091027f290decd9548b62a8d60345a988386fc84ba6bc95484008f6362f93160ef3e563019081906106699082610a05565b506020820151600182810180546001600160a01b0319166001600160a01b03909316929092179091556040909201516002909101556000546106ab9190610938565b336000818152600160208181526040808420805493840181558452922001839055519193507fa3ccd9b56d18a571b67b97905e5ef425788000d31a490513f7cad937175beeeb9161070d918582526001600160a01b0316602082015260400190565b60405180910390a15092915050565b3360009081526001602090815260409182902080548351818402810184019094528084526060939283018282801561077357602002820191906000526020600020905b81548152602001906001019080831161075f575b5050505050905090565b6000806040838503121561079057600080fd5b82356001600160a01b03811681146107a757600080fd5b946020939093013593505050565b600080604083850312156107c857600080fd5b50508035926020909101359150565b6000602082840312156107e957600080fd5b5035919050565b606081526000845180606084015260005b8181101561081e5760208188018101516080868401015201610801565b50600060808285018101919091526001600160a01b03959095166020840152604083019390935250601f909101601f19160101919050565b6000806020838503121561086957600080fd5b823567ffffffffffffffff8082111561088157600080fd5b818501915085601f83011261089557600080fd5b8135818111156108a457600080fd5b8660208285010111156108b657600080fd5b60209290920196919550909350505050565b6020808252825182820181905260009190848201906040850190845b81811015610900578351835292840192918401916001016108e4565b50909695505050505050565b634e487b7160e01b600052603260045260246000fd5b634e487b7160e01b600052601160045260246000fd5b8181038181111561094b5761094b610922565b92915050565b600181811c9082168061096557607f821691505b60208210810361098557634e487b7160e01b600052602260045260246000fd5b50919050565b8082018082111561094b5761094b610922565b634e487b7160e01b600052604160045260246000fd5b601f821115610a00576000816000526020600020601f850160051c810160208610156109dd5750805b601f850160051c820191505b818110156109fc578281556001016109e9565b5050505b505050565b815167ffffffffffffffff811115610a1f57610a1f61099e565b610a3381610a2d8454610951565b846109b4565b602080601f831160018114610a685760008415610a505750858301515b600019600386901b1c1916600185901b1785556109fc565b600085815260208120601f198616915b82811015610a9757888601518255948401946001909101908401610a78565b5085821015610ab55787850151600019600388901b60f8161c191681555b5050505050600190811b0190555056fea2646970667358221220d68bed6f0e7de279a4d6a5c210584bfbaded5810dc93361270813a167571266464736f6c63430008180033","linkReferences":{}},"methodIdentifiers":{"addVault(string)":"f8582934","deposit(uint256)":"b6b55f25","getMyVaults()":"fb3ddf57","getVault(uint256)":"9403b634","getVaultsLength()":"44b19dfc","vaults(uint256)":"8c64ea4a","vaultsByOwner(address,uint256)":"1a0121db","withdraw(uint256,uint256)":"441a3e70"},"id":23}